:020000041000EA
:1000000018030020D5000010DD000010DF000010F4
:1000100000000000000000000000000000000000E0
:10002000000000000000000000000000E1000010DF
:100030000000000000000000E3000010E5000010D8
:10004000E7000010E7000010E7000010E7000010D4
:10005000E7000010E7000010E7000010E7000010C4
:10006000E7000010E7000010E7000010E7000010B4
:10007000E700001039010010E7000010E700001051
:10008000E7000010E7000010E7000010E700001094
:10009000E7000010E7000010E7000010E700001084
:1000A000E7000010E7000010000000000000000062
:1000B0000000000000000000000000000000000040
:1000C0000348854600F014F8004800471D02001060
:1000D000180300200448804704480047FEE7FEE775
:1000E000FEE7FEE7FEE7FEE729010010C100001071
:1000F000064C0125064E05E0E36807CC2B430C3C7B
:1001000098471034B442F7D3FFF7DEFF58040010CD
:1001100078040010C206D20E01219140014A1160FC
:100120007047000080E200E0014802490860704723
:1001300000E1F5050801002010B500240D20FFF7AF
:10014000E9FF154880680E2108404008032805D1C2
:1001500011484068042188430F4948600E48806870
:100160000E2108404008022805D00B48806808404E
:10017000400806280ED1084840684008400006495B
:10018000486008460068C4B2084640680121084338
:100190000149486010BD000000100040042000F03C
:1001A00003F800BFFEE7000000BF044949692022B0
:1001B00011400029F9D00149086070470010004043
:1001C0001020034908628005024948637047000017
:1001D000001000400010024002E008C8121F08C1D1
:1001E000002AFAD170477047002001E001C1121FB8
:1001F000002AFBD1704700000248034948611020E3
:100200000861704713140C0000E0004070B504460C
:100210000D46E0B2FFF7C8FF70BD000010B5002426
:1002200000202F49086002202E4908602E484068AF
:100230003021884330302C4948602C484861FFF712
:10024000DBFFFFF7BDFF2A48406B05210906084385
:10025000274948630D2001218140264A116000BFD3
:10026000FFF758FF0D2001218140224A803A11609A
:1002700000BF21484068012108431F4948601FA072
:1002800000F07AF82B4800F087F804192948443028
:1002900000F082F8041928A000F06EF8012025492A
:1002A000486024494031886004E00D480068401CE3
:1002B0000B4908600A480068012149038842F4DBC1
:1002C000002007490860002C03D121A000F054F859
:1002D00002E024A000F050F8FFF760FF002010BDFE
:1002E00000010020003002400000024003500000E6
:1002F0000010024080E100E000100040454E533104
:10030000202D20574156455F47454E455241544F99
:10031000525F4452495645525F415F5465737420A1
:100320002D20245265766973696F6E3A2052303001
:10033000310A000000C00040456E61626C652044D7
:1003400072697665722030202620310A0000000094
:100350002A2A205445535420504153534544202ABF
:100360002A0A00002A2A2054455354204641494C69
:100370004544202A2A0A000010B5044601E0FFF790
:1003800045FF2078641C03490028F8D10A20FFF7B4
:100390003DFF10BD0C01002070B50446002500266D
:1003A0001BA0FFF7E9FF0020A060E0602020A06113
:1003B0000120E0631D48844203D11D482061606133
:1003C00007E01A484430844203D1194814302061B0
:1003D00060614A202060002005E0E0618100154A4C
:1003E00051582162401C4028F7DB00206062A06267
:1003F000E0620120206300206063A063002E04D02F
:100400000DA0FFF7B9FF01250026284670BD0000AA
:100410000A4452495645522041204946545F5349A7
:100420004E4520544553540A0000000000C00040CF
:1004300050C30000000000200A4552524F52203A9B
:100440002044726976657220412054657374204699
:1004500061696C65640A00007804001000000020E7
:1004600014010000D80100108C05001014010020B8
:1004700004020000E80100100C0000001800000059
:1004800025000000310000003D0000004A0000008F
:1004900055000000610000006D00000078000000C1
:1004A000830000008D00000097000000A100000004
:1004B000AB000000B4000000BC000000C50000005C
:1004C000CC000000D4000000DA000000E0000000D2
:1004D000E6000000EB000000F0000000F400000067
:1004E000F7000000FA000000FC000000FD00000022
:1004F000FE000000FF000000FE000000FD00000004
:10050000FC000000FA000000F7000000F40000000A
:10051000F0000000EB000000E6000000E00000003A
:10052000DA000000D4000000CC000000C50000008C
:10053000BC000000B4000000AB000000A1000000FF
:10054000970000008D00000083000000780000008C
:100550006D00000061000000550000004A0000002E
:100560003D000000310000002500000018000000E0
:100570000C000000000000000000000000E1F50594
:0C05800000E1F505000000000000000094
:04000005100000C126
:00000001FF
