:020000041000EA
:1000000018030020D5000010DD000010DF000010F4
:1000100000000000000000000000000000000000E0
:10002000000000000000000000000000E1000010DF
:100030000000000000000000E3000010E5000010D8
:10004000E7000010E7000010E7000010E7000010D4
:10005000E7000010E7000010E7000010E7000010C4
:10006000E7000010E7000010E7000010E7000010B4
:10007000E7000010E7000010E7000010E7000010A4
:10008000E7000010E7000010E7000010E700001094
:10009000E7000010E7000010E7000010E700001084
:1000A000E7000010E7000010000000000000000062
:1000B0000000000000000000000000000000000040
:1000C0000348854600F014F80048004785010010F9
:1000D000180300200448804704480047FEE7FEE775
:1000E000FEE7FEE7FEE7FEE715010010C100001085
:1000F000064C0125064E05E0E36807CC2B430C3C7B
:1001000098471034B442F7D3FFF7DEFF80030010A6
:10011000A0030010014802490860704700E1F5059E
:1001200008010020042000F002F800BFFEE700BF35
:10013000012189074969202211400029F8D0510680
:1001400008607047072001218907086240200149A3
:10015000486370470010024002E008C8121F08C13F
:10016000002AFAD170477047002001E001C1121F38
:10017000002AFBD1704770B504460D46E0B2FFF788
:10018000D6FF70BD10B5002400202349086002206E
:100190002249086022484068302188433030204995
:1001A0004860204848612048204948611020086183
:1001B000FFF7C8FF1EA000F079F82B4800F086F882
:1001C00004192948443000F081F8041927A000F0F0
:1001D0006DF801202449486023494031886004E0DB
:1001E0000D480068401C0C4908600B48006801215C
:1001F00049038842F4DB002007490860002C03D142
:1002000020A000F053F802E023A000F04FF8FFF721
:1002100089FF002010BD00000001002000300240D6
:1002200000000240015000007312040000E0004092
:10023000454E5331202D20574156455F47454E4589
:100240005241544F525F4452495645525F415F54A8
:10025000657374202D20245265766973696F6E3A38
:1002600020523030310A000000C00040456E61620B
:100270006C65204472697665722030202620310A30
:10028000000000002A2A2054455354205041535363
:100290004544202A2A0A00002A2A20544553542083
:1002A0004641494C4544202A2A0A000010B504461C
:1002B00001E0FFF760FF2078641C03490028F8D1B3
:1002C0000A20FFF758FF10BD0C01002070B504464E
:1002D0000025002619A0FFF7E9FF0020A060E060DC
:1002E0002020A0611C48844203D164202061606109
:1002F00006E019484430844202D1682020616061E0
:100300004A202060002005E0E0618100134A515836
:100310002162401C4028F7DB00206062A062E0629E
:100320000120206300206063A063002E04D00CA095
:10033000FFF7BCFF01250026284670BD0A4452493C
:100340005645522041204946545F53494E4520545A
:100350004553540A0000000000C000400000002087
:100360000A4552524F52203A2044726976657220F3
:10037000412054657374204661696C65640A00000D
:10038000A00300100000002014010000580100101C
:10039000B4040010140100200402000068010010E1
:1003A0000C000000180000002500000031000000D3
:1003B0003D0000004A000000550000006100000000
:1003C0006D00000078000000830000008D00000038
:1003D00097000000A1000000AB000000B400000086
:1003E000BC000000C5000000CC000000D4000000EC
:1003F000DA000000E0000000E6000000EB00000072
:10040000F0000000F4000000F7000000FA00000017
:10041000FC000000FD000000FE000000FF000000E6
:10042000FE000000FD000000FC000000FA000000DB
:10043000F7000000F4000000F0000000EB000000F6
:10044000E6000000E0000000DA000000D400000038
:10045000CC000000C5000000BC000000B40000009B
:10046000AB000000A1000000970000008D0000001C
:1004700083000000780000006D00000061000000B3
:10048000550000004A0000003D000000310000005F
:1004900025000000180000000C0000000000000013
:1004A0000000000000E1F50500E1F5050000000096
:0404B0000000000048
:04000005100000C126
:00000001FF
